{
  "contractName": "CrudApp",
  "abi": [
    {
      "inputs": [
        {
          "internalType": "uint256",
          "name": "",
          "type": "uint256"
        }
      ],
      "name": "items",
      "outputs": [
        {
          "internalType": "uint256",
          "name": "id",
          "type": "uint256"
        },
        {
          "internalType": "string",
          "name": "name",
          "type": "string"
        }
      ],
      "stateMutability": "view",
      "type": "function",
      "constant": true
    },
    {
      "inputs": [],
      "name": "nextId",
      "outputs": [
        {
          "internalType": "uint256",
          "name": "",
          "type": "uint256"
        }
      ],
      "stateMutability": "view",
      "type": "function",
      "constant": true
    },
    {
      "inputs": [
        {
          "internalType": "string",
          "name": "name",
          "type": "string"
        }
      ],
      "name": "create",
      "outputs": [],
      "stateMutability": "nonpayable",
      "type": "function"
    },
    {
      "inputs": [
        {
          "internalType": "uint256",
          "name": "id",
          "type": "uint256"
        }
      ],
      "name": "read",
      "outputs": [
        {
          "internalType": "uint256",
          "name": "",
          "type": "uint256"
        },
        {
          "internalType": "string",
          "name": "",
          "type": "string"
        }
      ],
      "stateMutability": "view",
      "type": "function",
      "constant": true
    },
    {
      "inputs": [
        {
          "internalType": "uint256",
          "name": "id",
          "type": "uint256"
        },
        {
          "internalType": "string",
          "name": "name",
          "type": "string"
        }
      ],
      "name": "update",
      "outputs": [],
      "stateMutability": "nonpayable",
      "type": "function"
    },
    {
      "inputs": [
        {
          "internalType": "uint256",
          "name": "id",
          "type": "uint256"
        }
      ],
      "name": "deleteItem",
      "outputs": [],
      "stateMutability": "nonpayable",
      "type": "function"
    }
  ],
  "bytecode": "0x608060405234801561001057600080fd5b50610e3b806100206000396000f3fe608060405234801561001057600080fd5b50600436106100625760003560e01c806361b8ce8c14610067578063654fc83314610085578063b6a46b3b146100a1578063bfb231d2146100bd578063ed2e5a97146100ee578063f745630f1461011f575b600080fd5b61006f61013b565b60405161007c9190610592565b60405180910390f35b61009f600480360381019061009a91906105ed565b610141565b005b6100bb60048036038101906100b69190610760565b61020c565b005b6100d760048036038101906100d291906105ed565b61028b565b6040516100e5929190610828565b60405180910390f35b610108600480360381019061010391906105ed565b610347565b604051610116929190610828565b60405180910390f35b61013960048036038101906101349190610858565b610439565b005b60015481565b600061014c8261047e565b90506000600160008054905061016291906108e3565b8154811061017357610172610917565b5b90600052602060002090600202016000828154811061019557610194610917565b5b906000526020600020906002020160008201548160000155600182018160010190816101c19190610b68565b5090505060008054806101d7576101d6610c50565b5b6001900381819060005260206000209060020201600080820160009055600182016000610204919061051c565b505090555050565b60006040518060400160405280600154815260200183815250908060018154018082558091505060019003906000526020600020906002020160009091909190915060008201518160000155602082015181600101908161026d9190610c7f565b5050506001600081548092919061028390610d51565b919050555050565b6000818154811061029b57600080fd5b90600052602060002090600202016000915090508060000154908060010180546102c490610975565b80601f01602080910402602001604051908101604052809291908181526020018280546102f090610975565b801561033d5780601f106103125761010080835404028352916020019161033d565b820191906000526020600020905b81548152906001019060200180831161032057829003601f168201915b5050505050905082565b6000606060006103568461047e565b90506000818154811061036c5761036b610917565b5b9060005260206000209060020201600001546000828154811061039257610391610917565b5b90600052602060002090600202016001018080546103af90610975565b80601f01602080910402602001604051908101604052809291908181526020018280546103db90610975565b80156104285780601f106103fd57610100808354040283529160200191610428565b820191906000526020600020905b81548152906001019060200180831161040b57829003601f168201915b505050505090509250925050915091565b60006104448361047e565b9050816000828154811061045b5761045a610917565b5b906000526020600020906002020160010190816104789190610c7f565b50505050565b600080600090505b6000805490508110156104db5782600082815481106104a8576104a7610917565b5b906000526020600020906002020160000154036104c85780915050610517565b80806104d390610d51565b915050610486565b506040517f08c379a000000000000000000000000000000000000000000000000000000000815260040161050e90610de5565b60405180910390fd5b919050565b50805461052890610975565b6000825580601f1061053a5750610559565b601f016020900490600052602060002090810190610558919061055c565b5b50565b5b8082111561057557600081600090555060010161055d565b5090565b6000819050919050565b61058c81610579565b82525050565b60006020820190506105a76000830184610583565b92915050565b6000604051905090565b600080fd5b600080fd5b6105ca81610579565b81146105d557600080fd5b50565b6000813590506105e7816105c1565b92915050565b600060208284031215610603576106026105b7565b5b6000610611848285016105d8565b91505092915050565b600080fd5b600080fd5b6000601f19601f8301169050919050565b7f4e487b7100000000000000000000000000000000000000000000000000000000600052604160045260246000fd5b61066d82610624565b810181811067ffffffffffffffff8211171561068c5761068b610635565b5b80604052505050565b600061069f6105ad565b90506106ab8282610664565b919050565b600067ffffffffffffffff8211156106cb576106ca610635565b5b6106d482610624565b9050602081019050919050565b82818337600083830152505050565b60006107036106fe846106b0565b610695565b90508281526020810184848401111561071f5761071e61061f565b5b61072a8482856106e1565b509392505050565b600082601f8301126107475761074661061a565b5b81356107578482602086016106f0565b91505092915050565b600060208284031215610776576107756105b7565b5b600082013567ffffffffffffffff811115610794576107936105bc565b5b6107a084828501610732565b91505092915050565b600081519050919050565b600082825260208201905092915050565b60005b838110156107e35780820151818401526020810190506107c8565b60008484015250505050565b60006107fa826107a9565b61080481856107b4565b93506108148185602086016107c5565b61081d81610624565b840191505092915050565b600060408201905061083d6000830185610583565b818103602083015261084f81846107ef565b90509392505050565b6000806040838503121561086f5761086e6105b7565b5b600061087d858286016105d8565b925050602083013567ffffffffffffffff81111561089e5761089d6105bc565b5b6108aa85828601610732565b9150509250929050565b7f4e487b7100000000000000000000000000000000000000000000000000000000600052601160045260246000fd5b60006108ee82610579565b91506108f983610579565b9250828203905081811115610911576109106108b4565b5b92915050565b7f4e487b7100000000000000000000000000000000000000000000000000000000600052603260045260246000fd5b7f4e487b7100000000000000000000000000000000000000000000000000000000600052602260045260246000fd5b6000600282049050600182168061098d57607f821691505b6020821081036109a05761099f610946565b5b50919050565b6000815490506109b581610975565b9050919050565b60008190508160005260206000209050919050565b60006020601f8301049050919050565b600082821b905092915050565b600060088302610a1e7fffffffffffffffffffffffffffffffffffffffffffffffffffffffffffffffff826109e1565b610a2886836109e1565b95508019841693508086168417925050509392505050565b6000819050919050565b6000610a65610a60610a5b84610579565b610a40565b610579565b9050919050565b6000819050919050565b610a7f83610a4a565b610a93610a8b82610a6c565b8484546109ee565b825550505050565b600090565b610aa8610a9b565b610ab3818484610a76565b505050565b5b81811015610ad757610acc600082610aa0565b600181019050610ab9565b5050565b601f821115610b1c57610aed816109bc565b610af6846109d1565b81016020851015610b05578190505b610b19610b11856109d1565b830182610ab8565b50505b505050565b600082821c905092915050565b6000610b3f60001984600802610b21565b1980831691505092915050565b6000610b588383610b2e565b9150826002028217905092915050565b818103610b76575050610c4e565b610b7f826109a6565b67ffffffffffffffff811115610b9857610b97610635565b5b610ba28254610975565b610bad828285610adb565b6000601f831160018114610bdc5760008415610bca578287015490505b610bd48582610b4c565b865550610c47565b601f198416610bea876109bc565b9650610bf5866109bc565b60005b82811015610c1d57848901548255600182019150600185019450602081019050610bf8565b86831015610c3a5784890154610c36601f891682610b2e565b8355505b6001600288020188555050505b5050505050505b565b7f4e487b7100000000000000000000000000000000000000000000000000000000600052603160045260246000fd5b610c88826107a9565b67ffffffffffffffff811115610ca157610ca0610635565b5b610cab8254610975565b610cb6828285610adb565b600060209050601f831160018114610ce95760008415610cd7578287015190505b610ce18582610b4c565b865550610d49565b601f198416610cf7866109bc565b60005b82811015610d1f57848901518255600182019150602085019450602081019050610cfa565b86831015610d3c5784890151610d38601f891682610b2e565b8355505b6001600288020188555050505b505050505050565b6000610d5c82610579565b91507fffffffffffffffffffffffffffffffffffffffffffffffffffffffffffffffff8203610d8e57610d8d6108b4565b5b600182019050919050565b7f4974656d20646f6573206e6f7420657869737400000000000000000000000000600082015250565b6000610dcf6013836107b4565b9150610dda82610d99565b602082019050919050565b60006020820190508181036000830152610dfe81610dc2565b905091905056fea264697066735822122038e7121fbe0e1de92e25ee846a0ecc92e847b2c6d528d30be1d22c164667495e64736f6c63430008130033",
  "immutableReferences": {},
  "source": "// SPDX-License-Identifier: MIT\r\npragma solidity 0.8.19;\r\n\r\ncontract CrudApp {\r\n    struct Item {\r\n        uint id;\r\n        string name;\r\n    }\r\n\r\n    Item[] public items;\r\n    uint public nextId;\r\n\r\n    // Create a new item\r\n    function create(string memory name) public {\r\n        items.push(Item(nextId, name));\r\n        nextId++;\r\n    }\r\n\r\n    // Read an item by id\r\n    function read(uint id) public view returns (uint, string memory) {\r\n        uint i = find(id);\r\n        return (items[i].id, items[i].name);\r\n    }\r\n\r\n    // Update an item by id\r\n    function update(uint id, string memory name) public {\r\n        uint i = find(id);\r\n        items[i].name = name;\r\n    }\r\n\r\n    // Delete an item by id\r\n    function deleteItem(uint id) public {\r\n        uint i = find(id);\r\n        items[i] = items[items.length - 1];\r\n        items.pop();\r\n    }\r\n\r\n    // Find an item by id\r\n    function find(uint id) internal view returns (uint) {\r\n        for (uint i = 0; i < items.length; i++) {\r\n            if (items[i].id == id) {\r\n                return i;\r\n            }\r\n        }\r\n        revert('Item does not exist');\r\n    }\r\n}\r\n",
  "sourcePath": "C:\\Users\\ADMIN 2023\\Ethereum_CRUD\\contracts\\CrudApp.sol",
  "compiler": {
    "name": "solc",
    "version": "0.8.19+commit.7dd6d404.Emscripten.clang"
  },
  "schemaVersion": "3.4.16",
  "updatedAt": "2024-09-08T11:35:52.996Z",
  "networkType": "ethereum",
  "devdoc": {
    "kind": "dev",
    "methods": {},
    "version": 1
  },
  "userdoc": {
    "kind": "user",
    "methods": {},
    "version": 1
  }
}