{
  "contractName": "CrudApp",
  "abi": [
    {
      "inputs": [],
      "stateMutability": "nonpayable",
      "type": "constructor"
    },
    {
      "inputs": [],
      "name": "admin",
      "outputs": [
        {
          "internalType": "address",
          "name": "",
          "type": "address"
        }
      ],
      "stateMutability": "view",
      "type": "function",
      "constant": true
    },
    {
      "inputs": [
        {
          "internalType": "uint256",
          "name": "",
          "type": "uint256"
        }
      ],
      "name": "items",
      "outputs": [
        {
          "internalType": "uint256",
          "name": "id",
          "type": "uint256"
        },
        {
          "internalType": "string",
          "name": "name",
          "type": "string"
        }
      ],
      "stateMutability": "view",
      "type": "function",
      "constant": true
    },
    {
      "inputs": [],
      "name": "nextId",
      "outputs": [
        {
          "internalType": "uint256",
          "name": "",
          "type": "uint256"
        }
      ],
      "stateMutability": "view",
      "type": "function",
      "constant": true
    },
    {
      "stateMutability": "payable",
      "type": "receive",
      "payable": true
    },
    {
      "inputs": [
        {
          "internalType": "string",
          "name": "name",
          "type": "string"
        }
      ],
      "name": "create",
      "outputs": [],
      "stateMutability": "nonpayable",
      "type": "function"
    },
    {
      "inputs": [
        {
          "internalType": "uint256",
          "name": "id",
          "type": "uint256"
        }
      ],
      "name": "read",
      "outputs": [
        {
          "internalType": "uint256",
          "name": "",
          "type": "uint256"
        },
        {
          "internalType": "string",
          "name": "",
          "type": "string"
        }
      ],
      "stateMutability": "view",
      "type": "function",
      "constant": true
    },
    {
      "inputs": [
        {
          "internalType": "uint256",
          "name": "id",
          "type": "uint256"
        },
        {
          "internalType": "string",
          "name": "name",
          "type": "string"
        }
      ],
      "name": "update",
      "outputs": [],
      "stateMutability": "nonpayable",
      "type": "function"
    },
    {
      "inputs": [
        {
          "internalType": "uint256",
          "name": "id",
          "type": "uint256"
        }
      ],
      "name": "deleteItem",
      "outputs": [],
      "stateMutability": "nonpayable",
      "type": "function"
    },
    {
      "inputs": [
        {
          "internalType": "address payable",
          "name": "recipient",
          "type": "address"
        },
        {
          "internalType": "uint256",
          "name": "amount",
          "type": "uint256"
        }
      ],
      "name": "transferEther",
      "outputs": [],
      "stateMutability": "nonpayable",
      "type": "function"
    }
  ],
  "bytecode": "0x608060405234801561001057600080fd5b5033600260006101000a81548173ffffffffffffffffffffffffffffffffffffffff021916908373ffffffffffffffffffffffffffffffffffffffff16021790555061121d806100616000396000f3fe60806040526004361061007f5760003560e01c8063bfb231d21161004e578063bfb231d214610131578063ed2e5a971461016f578063f745630f146101ad578063f851a440146101d657610086565b806305b1137b1461008b57806361b8ce8c146100b4578063654fc833146100df578063b6a46b3b1461010857610086565b3661008657005b600080fd5b34801561009757600080fd5b506100b260048036038101906100ad919061082b565b610201565b005b3480156100c057600080fd5b506100c961031f565b6040516100d6919061087a565b60405180910390f35b3480156100eb57600080fd5b5061010660048036038101906101019190610895565b610325565b005b34801561011457600080fd5b5061012f600480360381019061012a9190610a08565b6103f0565b005b34801561013d57600080fd5b5061015860048036038101906101539190610895565b61046f565b604051610166929190610ad0565b60405180910390f35b34801561017b57600080fd5b5061019660048036038101906101919190610895565b61052b565b6040516101a4929190610ad0565b60405180910390f35b3480156101b957600080fd5b506101d460048036038101906101cf9190610b00565b61061d565b005b3480156101e257600080fd5b506101eb610662565b6040516101f89190610b7d565b60405180910390f35b600260009054906101000a900473ffffffffffffffffffffffffffffffffffffffff1673ffffffffffffffffffffffffffffffffffffffff163373ffffffffffffffffffffffffffffffffffffffff1614610291576040517f08c379a000000000000000000000000000000000000000000000000000000000815260040161028890610c0a565b60405180910390fd5b804710156102d4576040517f08c379a00000000000000000000000000000000000000000000000000000000081526004016102cb90610c76565b60405180910390fd5b8173ffffffffffffffffffffffffffffffffffffffff166108fc829081150290604051600060405180830381858888f1935050505015801561031a573d6000803e3d6000fd5b505050565b60015481565b600061033082610688565b9050600060016000805490506103469190610cc5565b8154811061035757610356610cf9565b5b90600052602060002090600202016000828154811061037957610378610cf9565b5b906000526020600020906002020160008201548160000155600182018160010190816103a59190610f4a565b5090505060008054806103bb576103ba611032565b5b60019003818190600052602060002090600202016000808201600090556001820160006103e89190610726565b505090555050565b6000604051806040016040528060015481526020018381525090806001815401808255809150506001900390600052602060002090600202016000909190919091506000820151816000015560208201518160010190816104519190611061565b5050506001600081548092919061046790611133565b919050555050565b6000818154811061047f57600080fd5b90600052602060002090600202016000915090508060000154908060010180546104a890610d57565b80601f01602080910402602001604051908101604052809291908181526020018280546104d490610d57565b80156105215780601f106104f657610100808354040283529160200191610521565b820191906000526020600020905b81548152906001019060200180831161050457829003601f168201915b5050505050905082565b60006060600061053a84610688565b9050600081815481106105505761054f610cf9565b5b9060005260206000209060020201600001546000828154811061057657610575610cf9565b5b906000526020600020906002020160010180805461059390610d57565b80601f01602080910402602001604051908101604052809291908181526020018280546105bf90610d57565b801561060c5780601f106105e15761010080835404028352916020019161060c565b820191906000526020600020905b8154815290600101906020018083116105ef57829003601f168201915b505050505090509250925050915091565b600061062883610688565b9050816000828154811061063f5761063e610cf9565b5b9060005260206000209060020201600101908161065c9190611061565b50505050565b600260009054906101000a900473ffffffffffffffffffffffffffffffffffffffff1681565b600080600090505b6000805490508110156106e55782600082815481106106b2576106b1610cf9565b5b906000526020600020906002020160000154036106d25780915050610721565b80806106dd90611133565b915050610690565b506040517f08c379a0000000000000000000000000000000000000000000000000000000008152600401610718906111c7565b60405180910390fd5b919050565b50805461073290610d57565b6000825580601f106107445750610763565b601f0160209004906000526020600020908101906107629190610766565b5b50565b5b8082111561077f576000816000905550600101610767565b5090565b6000604051905090565b600080fd5b600080fd5b600073ffffffffffffffffffffffffffffffffffffffff82169050919050565b60006107c282610797565b9050919050565b6107d2816107b7565b81146107dd57600080fd5b50565b6000813590506107ef816107c9565b92915050565b6000819050919050565b610808816107f5565b811461081357600080fd5b50565b600081359050610825816107ff565b92915050565b600080604083850312156108425761084161078d565b5b6000610850858286016107e0565b925050602061086185828601610816565b9150509250929050565b610874816107f5565b82525050565b600060208201905061088f600083018461086b565b92915050565b6000602082840312156108ab576108aa61078d565b5b60006108b984828501610816565b91505092915050565b600080fd5b600080fd5b6000601f19601f8301169050919050565b7f4e487b7100000000000000000000000000000000000000000000000000000000600052604160045260246000fd5b610915826108cc565b810181811067ffffffffffffffff82111715610934576109336108dd565b5b80604052505050565b6000610947610783565b9050610953828261090c565b919050565b600067ffffffffffffffff821115610973576109726108dd565b5b61097c826108cc565b9050602081019050919050565b82818337600083830152505050565b60006109ab6109a684610958565b61093d565b9050828152602081018484840111156109c7576109c66108c7565b5b6109d2848285610989565b509392505050565b600082601f8301126109ef576109ee6108c2565b5b81356109ff848260208601610998565b91505092915050565b600060208284031215610a1e57610a1d61078d565b5b600082013567ffffffffffffffff811115610a3c57610a3b610792565b5b610a48848285016109da565b91505092915050565b600081519050919050565b600082825260208201905092915050565b60005b83811015610a8b578082015181840152602081019050610a70565b60008484015250505050565b6000610aa282610a51565b610aac8185610a5c565b9350610abc818560208601610a6d565b610ac5816108cc565b840191505092915050565b6000604082019050610ae5600083018561086b565b8181036020830152610af78184610a97565b90509392505050565b60008060408385031215610b1757610b1661078d565b5b6000610b2585828601610816565b925050602083013567ffffffffffffffff811115610b4657610b45610792565b5b610b52858286016109da565b9150509250929050565b6000610b6782610797565b9050919050565b610b7781610b5c565b82525050565b6000602082019050610b926000830184610b6e565b92915050565b7f4f6e6c792061646d696e2063616e20706572666f726d2074686973206163746960008201527f6f6e000000000000000000000000000000000000000000000000000000000000602082015250565b6000610bf4602283610a5c565b9150610bff82610b98565b604082019050919050565b60006020820190508181036000830152610c2381610be7565b9050919050565b7f496e73756666696369656e742062616c616e636520696e20636f6e7472616374600082015250565b6000610c60602083610a5c565b9150610c6b82610c2a565b602082019050919050565b60006020820190508181036000830152610c8f81610c53565b9050919050565b7f4e487b7100000000000000000000000000000000000000000000000000000000600052601160045260246000fd5b6000610cd0826107f5565b9150610cdb836107f5565b9250828203905081811115610cf357610cf2610c96565b5b92915050565b7f4e487b7100000000000000000000000000000000000000000000000000000000600052603260045260246000fd5b7f4e487b7100000000000000000000000000000000000000000000000000000000600052602260045260246000fd5b60006002820490506001821680610d6f57607f821691505b602082108103610d8257610d81610d28565b5b50919050565b600081549050610d9781610d57565b9050919050565b60008190508160005260206000209050919050565b60006020601f8301049050919050565b600082821b905092915050565b600060088302610e007fffffffffffffffffffffffffffffffffffffffffffffffffffffffffffffffff82610dc3565b610e0a8683610dc3565b95508019841693508086168417925050509392505050565b6000819050919050565b6000610e47610e42610e3d846107f5565b610e22565b6107f5565b9050919050565b6000819050919050565b610e6183610e2c565b610e75610e6d82610e4e565b848454610dd0565b825550505050565b600090565b610e8a610e7d565b610e95818484610e58565b505050565b5b81811015610eb957610eae600082610e82565b600181019050610e9b565b5050565b601f821115610efe57610ecf81610d9e565b610ed884610db3565b81016020851015610ee7578190505b610efb610ef385610db3565b830182610e9a565b50505b505050565b600082821c905092915050565b6000610f2160001984600802610f03565b1980831691505092915050565b6000610f3a8383610f10565b9150826002028217905092915050565b818103610f58575050611030565b610f6182610d88565b67ffffffffffffffff811115610f7a57610f796108dd565b5b610f848254610d57565b610f8f828285610ebd565b6000601f831160018114610fbe5760008415610fac578287015490505b610fb68582610f2e565b865550611029565b601f198416610fcc87610d9e565b9650610fd786610d9e565b60005b82811015610fff57848901548255600182019150600185019450602081019050610fda565b8683101561101c5784890154611018601f891682610f10565b8355505b6001600288020188555050505b5050505050505b565b7f4e487b7100000000000000000000000000000000000000000000000000000000600052603160045260246000fd5b61106a82610a51565b67ffffffffffffffff811115611083576110826108dd565b5b61108d8254610d57565b611098828285610ebd565b600060209050601f8311600181146110cb57600084156110b9578287015190505b6110c38582610f2e565b86555061112b565b601f1984166110d986610d9e565b60005b82811015611101578489015182556001820191506020850194506020810190506110dc565b8683101561111e578489015161111a601f891682610f10565b8355505b6001600288020188555050505b505050505050565b600061113e826107f5565b91507fffffffffffffffffffffffffffffffffffffffffffffffffffffffffffffffff82036111705761116f610c96565b5b600182019050919050565b7f4974656d20646f6573206e6f7420657869737400000000000000000000000000600082015250565b60006111b1601383610a5c565b91506111bc8261117b565b602082019050919050565b600060208201905081810360008301526111e0816111a4565b905091905056fea2646970667358221220ee4e338a0c300eeba5b0dc1bb7f19b2f4b48baf2dc2ec15bafa071ea1b1ca80164736f6c63430008130033",
  "immutableReferences": {},
  "source": "// SPDX-License-Identifier: MIT\r\npragma solidity 0.8.19;\r\n\r\ncontract CrudApp {\r\n    struct Item {\r\n        uint id;\r\n        string name;\r\n    }\r\n\r\n    Item[] public items;\r\n    uint public nextId;\r\n    address public admin;\r\n\r\n    // Constructor to set the admin\r\n    constructor() {\r\n        admin = msg.sender;\r\n    }\r\n\r\n    // Modifier to restrict access to admin\r\n    modifier onlyAdmin() {\r\n        require(msg.sender == admin, \"Only admin can perform this action\");\r\n        _;\r\n    }\r\n\r\n    // Create a new item\r\n    function create(string memory name) public {\r\n        items.push(Item(nextId, name));\r\n        nextId++;\r\n    }\r\n\r\n    // Read an item by id\r\n    function read(uint id) public view returns (uint, string memory) {\r\n        uint i = find(id);\r\n        return (items[i].id, items[i].name);\r\n    }\r\n\r\n    // Update an item by id\r\n    function update(uint id, string memory name) public {\r\n        uint i = find(id);\r\n        items[i].name = name;\r\n    }\r\n\r\n    // Delete an item by id\r\n    function deleteItem(uint id) public {\r\n        uint i = find(id);\r\n        items[i] = items[items.length - 1];\r\n        items.pop();\r\n    }\r\n\r\n    // Find an item by id\r\n    function find(uint id) internal view returns (uint) {\r\n        for (uint i = 0; i < items.length; i++) {\r\n            if (items[i].id == id) {\r\n                return i;\r\n            }\r\n        }\r\n        revert('Item does not exist');\r\n    }\r\n\r\n    // Function to transfer Ether to a specified address\r\n    function transferEther(address payable recipient, uint amount) public onlyAdmin {\r\n        require(address(this).balance >= amount, \"Insufficient balance in contract\");\r\n        recipient.transfer(amount);\r\n    }\r\n\r\n    // Fallback function to receive Ether\r\n    receive() external payable {}\r\n}\r\n",
  "sourcePath": "C:\\Users\\ADMIN 2023\\Ethereum_CRUD\\contracts\\CrudApp.sol",
  "compiler": {
    "name": "solc",
    "version": "0.8.19+commit.7dd6d404.Emscripten.clang"
  },
  "schemaVersion": "3.4.16",
  "updatedAt": "2024-09-10T03:06:09.395Z",
  "networkType": "ethereum",
  "devdoc": {
    "kind": "dev",
    "methods": {},
    "version": 1
  },
  "userdoc": {
    "kind": "user",
    "methods": {},
    "version": 1
  }
}